:1000000012C066C065C064C063C062C02BC060C05F
:100010005FC05EC05DC05CC05BC036C047C058C03A
:1000200057C056C055C011241FBECFEDCDBF03D061
:0600300000C0F894FFCFB0
:1000360087E181BB82E087BB12BA18BA8DEC86BF16
:100046008BE98CBF85E083BF87E089BF789485B74D
:0E005600806285BF889585B78F7D85BFF8CF06
:100064001F920F920FB60F9211248F939F9392B306
:1000740081E0892782BB9F918F910F900FBE0F90D3
:040084001F9018951C
:100088001F920F920FB60F9211248F939F9392B3E2
:1000980082E0892782BB9F918F910F900FBE0F90AE
:0400A8001F901895F8
:1000AC001F920F920FB60F9211248F939F9392B3BE
:1000BC0084E0892782BB9F918F910F900FBE0F9088
:0400CC001F901895D4
:0200D00097CFC8
:00000001FF
